:0300000002029C5D
:0100030032CA
:03000B00020124CB
:0100130032BA
:01001B0032B2
:0100230032AA
:03002B000201507F
:10002E00C00078B10000D8FCD00022C000C0017919
:10003E002D78A6D8FED9FADAF6D001D00022D296C3
:10004E0012002EC29622A2E79286A2E69287A2E51F
:10005E009290A2E4929112004C12002EA2E392868C
:10006E00A2E29287A2E19290A2E0929112004C221B
:10007E00D2A0020054C2A0020054C296C29774339A
:10008E0012008374331200837432120083742812A8
:10009E000083740C1200837401120083C0027A0272
:1000AE00120039D00222E493600612007EA380F67D
:1000BE002244404480020083C0E0E8C4540F443020
:1000CE0012007EE8540F443012007ED0E0222D2D17
:1000DE003A2D2D3A2D2D202D4D202020202000416F
:1000EE004C41524D202D2D3A2D2D202D4D003031CD
:1000FE00206665627275617279203230323020006E
:10010E00438E04E58954F04401F589758CE8758AAF
:10011E0090D2A9D28C22C28C758CE8758A9030024E
:10012E0004D28CB2A132438E1075C80075CF5775AC
:10013E00CE8075CB5775CA80E4F530F531D2ADD28D
:10014E00CA22C2CFC0E0C0D00530E5307002053102
:10015E00E530B4F469E531B40164D200C2A1B28CC9
:10016E00D2A1E4F530F53130A25730A457E5343042
:10017E00B15530B36D2401D4F534D4F534B4605C8C
:10018E00C2CAE4F530F531F534D2CAE53330B137B1
:10019E002401D4F533F533B46042E532B41209E4E8
:1001AE00F5337401F5328034E532B41102B201E454
:1001BE00F533E53230B1102401D4F532801E020140
:1001CE00EA02020C020240E533B400077459D4F57A
:1001DE0033800FE5332499D4F533800002026E028A
:1001EE00017BE532B401097412D4F532E53280ECAC
:1001FE00E5322499D4B41102B201F53280DEE5362F
:10020E00B459077400D4F5368009E5362401D4F5C7
:10021E003680CCE535B4120C7401D4F535E5358055
:10022E00BB0201EDE5352401D4B41202B203F5355B
:10023E0080ADE535B412097401D4F535E535809CF1
:10024E00E5352401D4B41202B203F5358091E534BC
:10025E00B45906E4D4F53480C8E5342401D4F53419
:10026E00D0D0D0E0327597DE7597AD75E10075E2AE
:10027E000075E34075A60275A90075A900E5A930C1
:10028E00E7FB12010E120134120088D2AF227581E3
:10029E007F120273C0E07401141200C1D0E0C0835B
:1002AE00C082C0E09000DC1200B4D0E0D082D083D7
:1002BE00C0E07401141200BFD0E0C083C082C0E061
:1002CE009000ED1200B4D0E0D082D083D200C201F3
:1002DE00753453753358753211C2027536597535EA
:1002EE0011C20320B71EC0027A32120039D002208A
:1002FE00B71230B7FDC2CAE4F530F531F534D2CAC3
:10030E008005C2003000DC208011C0027A3212005B
:10031E0039D0022080053080FDC202E5338536F0EB
:10032E00B5F022E5328535F0B5F01A20010520032F
:10033E0012800530030D8000D202E534B4300880FF
:10034E000480048000C202C0E07407141200C1D001
:10035E00E0C000A8341200C6D000C0E0740414122D
:10036E0000C1D0E0C000A8331200C6D000C0E074B7
:10037E0001141200C1D0E0C000A8321200C6D00095
:10038E00300115C0E0740A141200C1D0E0C0E07450
:10039E004112007ED0E08013C0E0740A141200C136
:1003AE00D0E0C0E0745012007ED0E0C0E0740A14B9
:1003BE001200BFD0E0C000A8361200C6D000C0E0C8
:1003CE007407141200BFD0E0C000A8351200C6D0CA
:1003DE0000300315C0E0740D141200BFD0E0C0E071
:1003EE00744112007ED0E08013C0E0740D14120030
:0F03FE00BFD0E0C0E0745012007ED0E00202F1E8
:00000001FF
