:030000000202A158
:0100030032CA
:03000B00020124CB
:0100130032BA
:01001B0032B2
:0100230032AA
:03002B000201507F
:10002E00C00078B10000D8FCD00022C000C0017919
:10003E002D78A6D8FED9FADAF6D001D00022D296C3
:10004E0012002EC29622A2E79286A2E69287A2E51F
:10005E009290A2E4929112004C12002EA2E392868C
:10006E00A2E29287A2E19290A2E0929112004C221B
:10007E00D2A0020054C2A0020054C296C29774339A
:10008E0012008374331200837432120083742812A8
:10009E000083740C1200837401120083C0027A0272
:1000AE00120039D00222E493600612007EA380F67D
:1000BE002244404480020083C0E0E8C4540F443020
:1000CE0012007EE8540F443012007ED0E0222D2D17
:1000DE003A2D2D3A2D2D202D4D202020202000416F
:1000EE004C41524D202D2D3A2D2D202D4D003031CD
:1000FE00206665627275617279203230323020006E
:10010E00438E04E58954F04401F589758CE8758AAF
:10011E0090D2A9D28C22C28C758CE8758A9030024E
:10012E0004D28CB2A132438E1075C80075CF5775AC
:10013E00CE8075CB5775CA80E4F530F531D2ADD28D
:10014E00CA22C2CFC0E0C0D00530E5307002053102
:10015E00E530B4F46EE531B40169D200C2A1B28CBF
:10016E00D2A1E4F530F53130A25C30A45C208002DF
:10017E00C202E53430B15530B36D2401D4F534D418
:10018E00F534B4605CC2CAE4F530F531F534D2CA48
:10019E00E53330B1372401D4F533F533B46042E59D
:1001AE0032B41209E4F5337401F5328034E532B419
:1001BE001102B201E4F533E53230B1102401D4F569
:1001CE0032801E0201EF020211020245E533B40035
:1001DE00077459D4F533800FE5332499D4F5338061
:1001EE0000020273020180E532B401097412D4F5E3
:1001FE0032E53280ECE5322499D4B41102B201F525
:10020E003280DEE536B459077400D4F5368009E540
:10021E00362401D4F53680CCE535B4120C7401D4F5
:10022E00F535E53580BB0201F2E5352401D4B41273
:10023E0002B203F53580ADE535B412097401D4F57B
:10024E0035E535809CE5352401D4B41202B203F5B0
:10025E00358091E534B45906E4D4F53480C8E534DC
:10026E002401D4F534D0D0D0E0327597DE7597AD39
:10027E0075E10075E20075E34075A60275A900757B
:10028E00A900E5A930E7FB12010E12013412008815
:10029E00D2AF2275817F120278C0E0740114120071
:1002AE00C1D0E0C083C082C0E09000DC1200B4D0A8
:1002BE00E0D082D083C0E07401141200BFD0E0C041
:1002CE0083C082C0E09000ED1200B4D0E0D082D0A6
:1002DE0083D200C201753453753358753211C20280
:1002EE00753659753511C20320B71EC0027A321207
:1002FE000039D00220B71230B7FDC2CAE4F530F58E
:10030E0031F534D2CA8005C2003000DCE5338536C3
:10031E00F0B5F01BE5328535F0B5F0132001052060
:10032E00030B80053003068000D20280048000C2D9
:10033E0002208011C0027A32120039D002208005CC
:10034E003080FDC202C0E07407141200C1D0E0C0BC
:10035E0000A8341200C6D000C0E07404141200C10C
:10036E00D0E0C000A8331200C6D000C0E074011463
:10037E001200C1D0E0C000A8321200C6D000300179
:10038E0015C0E0740A141200C1D0E0C0E07441122E
:10039E00007ED0E08013C0E0740A141200C1D0E0D9
:1003AE00C0E0745012007ED0E0C0E0740A14120057
:1003BE00BFD0E0C000A8361200C6D000C0E074075F
:1003CE00141200BFD0E0C000A8351200C6D0003015
:1003DE000315C0E0740D141200BFD0E0C0E07441EC
:1003EE0012007ED0E08013C0E0740D141200BFD056
:0D03FE00E0C0E0745012007ED0E00202F674
:00000001FF
