:03000000020232C7
:0100030032CA
:03000B00020125CA
:0100130032BA
:01001B0032B2
:0100230032AA
:03002B0002014E81
:10002E00C00078B10000D8FCD00022C000C0017919
:10003E002D78A6D8FED9FADAF6D001D00022D296C3
:10004E0012002EC29622A2E79286A2E69287A2E51F
:10005E009290A2E4929112004C12002EA2E392868C
:10006E00A2E29287A2E19290A2E0929112004C221B
:10007E00D2A0020054C2A0020054C296C29774339A
:10008E0012008374331200837432120083742812A8
:10009E000083740C1200837401120083C0027A0272
:1000AE00120039D00222E493600612007EA380F67D
:1000BE002244404480020083C0E0E8C4540F443020
:1000CE0012007EE8540F443012007ED0E0222D2D17
:1000DE003A2D2D3A2D2D202D4D202020202000416F
:1000EE004C41524D2D2D3A2D2D3A2D2D202D4D00BA
:1000FE003239204A616E7561727920323032302089
:10010E0000438E04E58954F04401F589758CE87539
:10011E008A90D2A9D28C22C28C758CE8758A90D224
:10012E008CB2A132438E1075C80075CFF675CEA075
:10013E0075CBF675CAA0E4F530F531D2ADD2CA2230
:10014E00C2CFC0E0C0D00530E53070020531E530D9
:10015E00B4F471E531B4016CD200B28CD2A1E4F5E5
:10016E0030F531E5353080492401D4F535D4F535F7
:10017E00B46051C2CAE4F530F531F535D2CAE53472
:10018E0030802E2401D4F534F534B46069E533B4EF
:10019E001209E4F5347401F533805BE533B41102D2
:1001AE00B204E4F534E5333080072401D4F533800E
:1001BE0013E535B400077459D4F535800AE53524B6
:1001CE0099D4F535020204E534B400077459D4F518
:1001DE00348009E5342499D4F534801AE533B4011A
:1001EE00097412D4F533E533800CE5332499D4B475
:1001FE001102B204F533D0D0D0E0327597DE759788
:10020E00AD75E10075E20075E34075A60275A900B3
:10021E0075A900E5A930E7FB12010F120132120099
:10022E0088D2AF2275817F120209C0E074011412C8
:10023E0000C1D0E0C083C082C0E09000DC1200B4E8
:10024E00D0E0D082D083C0E07401141200BFD0E0A1
:10025E00C083C082C0E09000ED1200B4D0E0D08226
:10026E00D083D200C2047535027534007533122066
:10027E00B71CC0027A32120039D00220B71030B744
:10028E00FDC2CAE4F530F531F535D2CA800330002F
:10029E00DEC200C0E07407141200C1D0E0C000A896
:1002AE00351200C6D000C0E07404141200C1D0E0B4
:1002BE00C000A8341200C6D000C0E07401141200B1
:1002CE00C1D0E0C000A8331200C6D000300415C063
:1002DE00E0740A141200C1D0E0C0E0744112007E36
:1002EE00D0E08013C0E0740A141200C1D0E0C0E068
:0A02FE00745012007ED0E002027D71
:00000001FF
