:0300000002018674
:0100030032CA
:03000B000200FEF2
:0100130032BA
:01001B0032B2
:0100230032AA
:03002B00020127A8
:10002E00C00078B10000D8FCD00022C000C0017919
:10003E002D78A6D8FED9FADAF6D001D00022D296C3
:10004E0012002EC29622A2E79286A2E69287A2E51F
:10005E009290A2E4929112004C12002EA2E392868C
:10006E00A2E29287A2E19290A2E0929112004C221B
:10007E00D2A0020054C2A0020054C296C29774339A
:10008E0012008374331200837432120083742812A8
:10009E000083740C1200837401120083C0027A0272
:1000AE00120039D00222E493600612007EA380F67D
:1000BE002244404480020083C0E0E8C4540F443020
:1000CE0012007EE8540F443012007ED0E022787881
:1000DE00203A7878203A78782000438E04E58954C7
:1000EE00F04401F589758CE8758A90D2A9D28C22DC
:1000FE00C28C758CE8758A90D28CB2A132438E1068
:10010E0075C80075CFA275CE4075CBA275CA40E4F6
:10011E00F530F531D2ADD2CA22C2CFC0E0C0D00583
:10012E0030E53070020531E530B4F41EE531B4012E
:10013E0019D200B28CD2A1E4F530F531E53230801F
:10014E0004240180022499D4F532D0D0D0E0327547
:10015E0097DE7597AD75E10075E20075E34075A603
:10016E000275A90075A900E5A930E7FB1200E81297
:10017E00010B120088D2AF2275817F12015DC0E0A3
:10018E007401141200C1D0E0C083C082C0E09000A0
:10019E00DC1200B4D0E0D082D083D20075320020C1
:1001AE00B71CC0027A32120039D00220B71030B715
:1001BE00FDC2CAE4F530F531F532D2CA8003300003
:1001CE00DEC200C0E07409141200C1D0E0C000A865
:0901DE00321200C6D0000201AD8E
:00000001FF
