:0300000002054CAA
:0100030032CA
:03000B000200F5FB
:0100130032BA
:01001B0032B2
:0100230032AA
:03002B0002010FC0
:10002E00C00078B10000D8FCD00022C000C0017919
:10003E002D78A6D8FED9FADAF6D001D00022D293C6
:10004E0012002EC29322A2E792B5A2E692B4A2E5C6
:10005E0092B3A2E492B212004C12002EA2E392B519
:10006E00A2E292B4A2E192B3A2E092B212004C22AA
:10007E00D291020054C291020054C293C2927433C0
:10008E0012008374331200837432120083742812A8
:10009E000083740C1200837401120083C0027A0272
:1000AE00120039D00222E493600612007EA380F67D
:1000BE002244404480020083C0E0E8C4540F443020
:1000CE0012007EE8540F443012007ED0E022E58903
:1000DE0054F04401F589758CEA758AE875F4EA7571
:1000EE00F2E8D2A9D28C223275C80075CDA975CC92
:1000FE009A75CBA975CA9AE4F530F531D2ADD2CA4C
:10010E0022C2CFB2B6C0E0C0D00530E530700205D5
:10011E0031E530B4E84FE531B4034AD200E4F530AE
:10012E00F531E53230803C2401D4F532B40332C2CD
:10013E00CAE4F530F531F532D2CAE5332401D4F5EF
:10014E0033B4591DE534B41209E4F5337401F534B2
:10015E00800FB41102B201E4F533E5342401D4F575
:10016E003480022499D0D0D0E032744012008374CF
:10017E000712007E740F12007E741F12007E741F11
:10018E0012007E741F12007E741F12007E741F12E6
:10019E00007E741F12007E741F12007E741F1200E8
:1001AE007E741F12007E740012007E740012007E98
:1001BE00740012007E740012007E740012007E74B1
:1001CE001C12007E741E12007E741F12007E741F9D
:1001DE0012007E741F12007E741F12007E741F1296
:1001EE00007E741F12007E741F12007E741F120098
:1001FE007E741F12007E741F12007E741F12007E0A
:10020E00741F12007E740F12007E740712007E742B
:10021E000012007E740012007E740012007E7400C4
:10022E0012007E740012007E741F12007E741F1264
:10023E00007E741F12007E741F12007E741F120047
:10024E007E741F12007E741F12007E741F12007EB9
:10025E00741F12007E741E12007E741C12007E74B7
:10026E001F12007E741F12007E741F12007E740017
:10027E0012007E740012007E740012007E741F1233
:10028E00007E741F12007E741F12007E7400120016
:10029E007E740012007E740012007E740012007EC6
:1002AE00741F12007E741F12007E741F12007E22B5
:1002BE00E94480120083740012007E740112007EE5
:1002CE00740212007EE944C0120083740312007E91
:1002DE00740412007E740512007E22E9448012001E
:1002EE0083742012007E740012007E742012007E31
:1002FE00E944C0120083742012007E74FF12007E47
:10030E00742012007E22E9448012008374061200CB
:10031E007E740612007E740212007EE944C0120042
:10032E0083740312007E740712007E740712007E1F
:10033E0022E94480120083740612007E74061200B5
:10034E007E740212007EE944C0120083740712000C
:10035E007E740712007E740512007E22E94480121C
:10036E000083740312007E740412007E7402120065
:10037E007EE944C0120083742012007E74201200A5
:10038E007E74FF12007E22E9448012008374FF12F5
:10039E00007E740612007E740612007EE944C012BE
:1003AE000083740712007E740712007E740512001B
:1003BE007E22E94480120083740012007E740612BD
:1003CE00007E740612007EE944C01200837403128C
:1003DE00007E740712007E740512007E22E94480AE
:1003EE00120083740112007E740112007E740212D8
:1003FE00007EE944C0120083742012007E74201225
:10040E00007E740012007E22E94480120083740084
:10041E0012007E740612007E740212007EE944C041
:10042E00120083740312007E740712007E7405128C
:10043E00007E22E94480120083740012007E74064E
:10044E0012007E740212007EE944C01200837420F2
:10045E0012007E742012007E74FF12007E2275F050
:10046E0003A4900474730202BE0202E90203140292
:10047E00033F02036A0203950203C00203EB020468
:10048E0016020441C0E088F0A9F0C4540F12046CA7
:10049E00E82403F9D0E0540F12046C22E912008311
:1004AE00743012007E22E9120083743112007E2213
:1004BE00E9120083743212007E22E9120083743333
:1004CE0012007E22E9120083743412007E22E91299
:1004DE000083743512007E22E912008374361200F6
:1004EE007E22E9120083743712007E22E912008305
:1004FE00743812007E22E9120083743912007E22B3
:10050E0075F003A4900516730204AA0204B4020443
:10051E00BE0204C80204D20204DC0204E60204F0A5
:10052E000204FA020504C0E088F0A9F0C4540F12C8
:10053E00050EE82401F9D0E0540F12050E22758144
:10054E007F1200DC1200F675E60075E700D2AF12DE
:10055E000088120178D200C20175320075335775CA
:10056E00341120C51CC0027A32120039D00220C5C7
:10057E001030C5FDC2CAE4F530F531F532D2CA806D
:10058E00033000DEC2007486120083742E12007EC9
:10059E0074C6120083742E12007E78CEE5321205D8
:1005AE00341205BB1205C31205CB0205707807E5A0
:1005BE0033120492227800E534120492223001158F
:1005CE00748E120083744112007E748F1200837435
:1005DE004D12007E22748E120083745012007E74AF
:0A05EE008F120083744D12007E226C
:00000001FF
